{
  "contractName": "DataStructure",
  "abi": [
    {
      "inputs": [
        {
          "internalType": "uint256",
          "name": "",
          "type": "uint256"
        }
      ],
      "name": "hospitals",
      "outputs": [
        {
          "internalType": "address",
          "name": "",
          "type": "address"
        }
      ],
      "stateMutability": "view",
      "type": "function"
    },
    {
      "inputs": [],
      "name": "owner",
      "outputs": [
        {
          "internalType": "address",
          "name": "",
          "type": "address"
        }
      ],
      "stateMutability": "view",
      "type": "function"
    },
    {
      "inputs": [
        {
          "internalType": "uint256",
          "name": "",
          "type": "uint256"
        }
      ],
      "name": "suppliers",
      "outputs": [
        {
          "internalType": "address",
          "name": "",
          "type": "address"
        }
      ],
      "stateMutability": "view",
      "type": "function"
    }
  ],
  "bytecode": "0x608060405234801561000f575f80fd5b5061024a8061001d5f395ff3fe608060405234801561000f575f80fd5b506004361061003f575f3560e01c806381dc6fd2146100435780638da5cb5b14610073578063cea2312114610091575b5f80fd5b61005d60048036038101906100589190610191565b6100c1565b60405161006a91906101fb565b60405180910390f35b61007b6100fc565b60405161008891906101fb565b60405180910390f35b6100ab60048036038101906100a69190610191565b61011f565b6040516100b891906101fb565b60405180910390f35b600481815481106100d0575f80fd5b905f5260205f20015f915054906101000a900473ffffffffffffffffffffffffffffffffffffffff1681565b5f8054906101000a900473ffffffffffffffffffffffffffffffffffffffff1681565b6003818154811061012e575f80fd5b905f5260205f20015f915054906101000a900473ffffffffffffffffffffffffffffffffffffffff1681565b5f80fd5b5f819050919050565b6101708161015e565b811461017a575f80fd5b50565b5f8135905061018b81610167565b92915050565b5f602082840312156101a6576101a561015a565b5b5f6101b38482850161017d565b91505092915050565b5f73ffffffffffffffffffffffffffffffffffffffff82169050919050565b5f6101e5826101bc565b9050919050565b6101f5816101db565b82525050565b5f60208201905061020e5f8301846101ec565b9291505056fea264697066735822122026a3b9c3846a745a6623aef7cc9bc3c88c3c94c34c0fbdc5ca05d8494bda006c64736f6c63430008150033",
  "immutableReferences": {},
  "source": "// SPDX-License-Identifier: UNLICENSED\r\npragma solidity ^0.8.17;\r\n\r\ncontract DataStructure {\r\n    address public owner;\r\n    uint256 internal supplierId;\r\n    uint256 internal hospitalId;\r\n    address[] public suppliers;\r\n    address[] public hospitals;\r\n    uint256[] internal patients;\r\n    uint256 internal bloodUniqueId;\r\n\r\n    struct Donor {\r\n        string donorName;\r\n        uint256 age;\r\n        string gender;\r\n        string Address;\r\n        string bloodGroup;\r\n        uint256 bloodVolume;\r\n        uint256 bloodUniqueId;\r\n        uint256 donatedTime;\r\n    }\r\n    struct BloodDetails {\r\n        uint256 bloodUniqueId;\r\n        string bloodGroup;\r\n        uint256 donatedTime;\r\n        Status currentStatus;\r\n    }\r\n\r\n    struct Supplier {\r\n        address supplierAddress;\r\n        string organizationName;\r\n        uint256 phoneNumber;\r\n        uint256 addedTime;\r\n    }\r\n\r\n    struct Hospital {\r\n        address hospitalAddress;\r\n        string hospital_name;\r\n        uint256 phoneNumber;\r\n        uint256 addedTime;\r\n    }\r\n\r\n    struct Patient {\r\n        string patientName;\r\n        uint256 age;\r\n        string Address;\r\n        string bloodGroup;\r\n        uint256 usedBloodId;\r\n        uint256 usedTime;\r\n    }\r\n\r\n    mapping(uint256 => Supplier) internal mappedSupplier;\r\n    mapping(uint256 => Hospital) internal mappedHospital;\r\n    mapping(uint256 => Donor) internal mappedDonor;\r\n    mapping(uint256 => Patient) internal mappedPatient;\r\n    mapping(uint256 => BloodDetails) internal mappedBloodDetails;\r\n\r\n    // mappings to check suppliers,hospitals in modifiers, so not to check by loops\r\n    mapping(address => bool) internal authorizedSuppliers;\r\n    mapping(address => bool) internal authorizedHospitals;\r\n\r\n    enum Status {\r\n        pending, // no record of blood,\r\n        Active, // Donor donated his blood & yet to be shipped to Hospital\r\n        Shipped, // Blood shipped to Hospital * yet to be used by Patients\r\n        Fulfilled // Blood Used by patient\r\n    }\r\n}",
  "sourcePath": "C:\\Users\\21627\\Desktop\\blood_donation\\contracts\\lib\\DataStructure.sol",
  "compiler": {
    "name": "solc",
    "version": "0.8.21+commit.d9974bed.Emscripten.clang"
  },
  "schemaVersion": "3.4.16",
  "updatedAt": "2023-10-24T13:44:22.196Z",
  "devdoc": {
    "kind": "dev",
    "methods": {},
    "version": 1
  },
  "userdoc": {
    "kind": "user",
    "methods": {},
    "version": 1
  }
}