{
  "contractName": "Modifiers",
  "abi": [
    {
      "inputs": [
        {
          "internalType": "uint256",
          "name": "",
          "type": "uint256"
        }
      ],
      "name": "hospitals",
      "outputs": [
        {
          "internalType": "address",
          "name": "",
          "type": "address"
        }
      ],
      "stateMutability": "view",
      "type": "function"
    },
    {
      "inputs": [],
      "name": "owner",
      "outputs": [
        {
          "internalType": "address",
          "name": "",
          "type": "address"
        }
      ],
      "stateMutability": "view",
      "type": "function"
    },
    {
      "inputs": [
        {
          "internalType": "uint256",
          "name": "",
          "type": "uint256"
        }
      ],
      "name": "suppliers",
      "outputs": [
        {
          "internalType": "address",
          "name": "",
          "type": "address"
        }
      ],
      "stateMutability": "view",
      "type": "function"
    }
  ],
  "bytecode": "0x608060405234801561000f575f80fd5b5061024a8061001d5f395ff3fe608060405234801561000f575f80fd5b506004361061003f575f3560e01c806381dc6fd2146100435780638da5cb5b14610073578063cea2312114610091575b5f80fd5b61005d60048036038101906100589190610191565b6100c1565b60405161006a91906101fb565b60405180910390f35b61007b6100fc565b60405161008891906101fb565b60405180910390f35b6100ab60048036038101906100a69190610191565b61011f565b6040516100b891906101fb565b60405180910390f35b600481815481106100d0575f80fd5b905f5260205f20015f915054906101000a900473ffffffffffffffffffffffffffffffffffffffff1681565b5f8054906101000a900473ffffffffffffffffffffffffffffffffffffffff1681565b6003818154811061012e575f80fd5b905f5260205f20015f915054906101000a900473ffffffffffffffffffffffffffffffffffffffff1681565b5f80fd5b5f819050919050565b6101708161015e565b811461017a575f80fd5b50565b5f8135905061018b81610167565b92915050565b5f602082840312156101a6576101a561015a565b5b5f6101b38482850161017d565b91505092915050565b5f73ffffffffffffffffffffffffffffffffffffffff82169050919050565b5f6101e5826101bc565b9050919050565b6101f5816101db565b82525050565b5f60208201905061020e5f8301846101ec565b9291505056fea2646970667358221220e413d5a2be59efa0ce5cd3dd63a1f95209164ea2e0c38c92a2d0237f1ab9b7fc64736f6c63430008150033",
  "immutableReferences": {},
  "source": "// SPDX-License-Identifier: UNLICENSED\r\npragma solidity ^0.8.17;\r\nimport \"./DataStructure.sol\";\r\n\r\ncontract Modifiers is DataStructure {\r\n    modifier checkOwner(address _owner) {\r\n        require(_owner == owner, \"you are not a Owner !!\");\r\n        _;\r\n    }\r\n\r\n    modifier checkSupplier(address _entity) {\r\n        require(\r\n            authorizedSuppliers[_entity],\r\n            \"You are not a Authorized Supplier !!\"\r\n        );\r\n        _;\r\n    }\r\n\r\n    modifier checkHospital(address _entity) {\r\n        require(\r\n            authorizedHospitals[_entity],\r\n            \"You are not a Authorized Hospital !!\"\r\n        );\r\n        _;\r\n    }\r\n\r\n    modifier existsHospitalPermission(address _addresss) {\r\n        require(\r\n            authorizedHospitals[_addresss],\r\n            \"No permision to Ship Blood Here !!\"\r\n        );\r\n        _;\r\n    }\r\n}",
  "sourcePath": "C:\\Users\\21627\\Desktop\\blood_donation\\contracts\\lib\\Modifiers.sol",
  "compiler": {
    "name": "solc",
    "version": "0.8.21+commit.d9974bed.Emscripten.clang"
  },
  "schemaVersion": "3.4.16",
  "updatedAt": "2023-10-24T13:44:22.203Z",
  "devdoc": {
    "kind": "dev",
    "methods": {},
    "version": 1
  },
  "userdoc": {
    "kind": "user",
    "methods": {},
    "version": 1
  }
}